:060000000A128A110C280F
:10000800FE00030EF0000A08F1000A128A114B28BC
:100018000A128A110F28F50183010A128A1114287D
:10002800831603130614FE308705FE3088058312F5
:1000380003138601870188018316031301170B1622
:100048000B178B178312031308141A30F4005E3051
:10005800F3006E30F200F20B2F28F30B2F28F40B6D
:100068002F280000FE308312031388051A30F4008D
:100078005E30F3006E30F200F20B4028F30B40289C
:10008800F40B4028000026280A128A110C288B1C21
:100098004E284F285B28831203130608F500751CA9
:1000A80056285728592801308706FD308B057108D6
:0C00B8008A00700E8300FE0E7E0E090010
:02400E003A3F37
:00000001FF
