:060000000A128A11E22F32
:1002BE000A128A1185210A128A1183160313111448
:1002CE0008000A128A1185210A128A118316031355
:1002DE00111508000A128A1185210A128A11831635
:1002EE00031391140800F0000A128A1185210A12D4
:1002FE008A117008831203139300080083160313E8
:10030E0014198A298B29852911081F39031D902953
:10031E0091298529080044344134543445343A3403
:10032E0020340034543449344D3445343A34203476
:10033E00003441344D3400347E088A007F08820038
:10034E000A128A11A3210A128A118000840A040853
:10035E007D0603190034FF0A0319FE0AA729F200CD
:10036E008312031307157208880087140D30F100ED
:10037E00FB30F000F00BC129F10BC129C629831205
:10038E00031387100800F20083120313071172087B
:10039E00880087140D30F100FB30F000F00BD529EA
:1003AE00F10BD529DA298312031387100800F40103
:1003BE00F501701CE329E429EA297208F4070318F1
:1003CE00F50A7308F50701300310F20DF30DFF3E29
:1003DE00031DEB2901300310F10CF00CFF3E031D41
:1003EE00F22970087104031DFD29FE29E029750804
:1003FE00F1007408F00008000F307605F8000030A8
:10040E007705F900760E0F39F000770EF039F0040B
:10041E00770E0F39F100F030F11D0030F1040A3083
:10042E00F2000030F3000A128A11DE210A128A113C
:10043E0078087007F60079080318790A7107F70033
:10044E0008000A128A1185210A128A1183160313D3
:10045E0091150A128A1185210A128A118312031329
:10046E001308F200F3017208F4007308F5000A1283
:10047E008A1185210A128A11700871040319482AFB
:10048E004C2A8316031391164F2A831603139112C7
:10049E0011167508F1007408F00008000A30F0001B
:1004AE000030F1007908F3007808F2000A128A1180
:1004BE0073230A128A117008FA007108FB00FA0EF3
:1004CE00FB0EF030FB057A080F39FB04F030FA050D
:1004DE000A30F0000030F1007908F3007808F200DD
:1004EE000A128A111C230A128A1170087A04F80063
:1004FE0071087B04F90008000030FC000030FB009E
:10050E000030FA000030F900701C8E2A8F2AA62ABD
:10051E007408F907750803110318013E0319982A88
:10052E00FA07760803110318013E03199F2AFB07E9
:10053E00770803110318013E0319A62AFC070130A0
:10054E00F8000310F40DF50DF60DF70DF80BA82AB3
:10055E0001300310F30CF20CF10CF00CFF3E031DF6
:10056E00B02A7308720471047004031DBF2AC02AD6
:10057E008B2A7C08F3007B08F2007A08F1007908D8
:10058E00F000080083160313871507162830831210
:10059E000313940083160313910194018312031322
:1005AE002D08B1002E08B2002F08B3003008B40099
:1005BE0002300310B10DB20DB30DB40DFF3E031D8D
:1005CE00E02A3408F3003308F2003208F100310853
:1005DE00F0000030F7000030F6000030F500643017
:1005EE00F4000A128A1183220A128A1173088312E6
:1005FE000313A3007208A2007108A1007008A000E6
:10060E000130A7003130A6002D30A5000030A40027
:10061E000A128A11D6230A128A1183120313200892
:10062E00FF3E8316031393000800F501F31F202BE2
:10063E00212B282BF209F309F20A0319F30A0130D0
:10064E00F500F11F2B2B2C2B312BF009F109F00AA1
:10065E000319F10A700871040319362B372B642B1A
:10066E000130F400432B01300310F00DF10DFF3E6D
:10067E00031D3B2B0130F407F11F462B472B3A2B62
:10068E0071087302031D4D2B70087202031C502B50
:10069E00512B572B7008F2027108031CF303F3025F
:1006AE0001300310F10CF00CFF3E031D582B0130EE
:1006BE00F402031D632B642B472B75080319682B5B
:1006CE00692B6E2BF209F309F20A0319F30A730868
:1006DE00F1007208F0000800F501F11F772B782B5E
:1006EE007F2BF009F109F00A0319F10A0130F50028
:1006FE00F31F822B832B8A2BF209F309F20A0319BB
:10070E00F30A0130F506F601F701700871040319BA
:10071E00912B922BC72B0130F4009E2B013003102E
:10072E00F00DF10DFF3E031D962B0130F407F11F66
:10073E00A12BA22B952B01300310F60DF70DFF3ECA
:10074E00031DA32B71087302031DAF2B70087202D9
:10075E00031CB22BB32BBA2B7008F2027108031CC8
:10076E00F303F302761401300310F10CF00CFF3E8C
:10077E00031DBB2B0130F402031DC62BC72BA22B6E
:10078E0075080319CB2BCC2BD12BF609F709F60ADA
:10079E000319F70A7708F1007608F0000800003018
:1007AE0083120313AB000030AA000030A900003002
:1007BE00A80023082204210420040319E72BE82BA8
:1007CE00332C0130AC00F62B0130FD000310A00DD0
:1007DE00A10DA20DA30DFD0BED2B0130AC07A31F38
:1007EE00F92BFA2BEB2B0130FD000310A80DA90DF0
:1007FE00AA0DAB0DFD0BFC2B23082702031D112C9C
:10080E0022082602031D112C21082502031D112C7E
:10081E0020082402031C142C152C242C2008A402BE
:10082E002108031C210FA5022208031C220FA60279
:10083E002308031C230FA702281401300310A30C56
:10084E00A20CA10CA00CFF3E031D252C0130AC0206
:10085E00031D322C332CFA2B2B08A3002A08A200DE
:10086E002908A1002808A000080083160313870199
:10087E0088010330F5008A30F4005530F300F30B95
:10088E00462CF40B462CF50B462C4D2C30300A1210
:10089E008A11CA210A128A112130F4007630F3002F
:1008AE00F30B572CF40B572C000030300A128A1120
:1008BE00CA210A128A112130F4007630F300F30BAC
:1008CE00662CF40B662C000030300A128A11CA21F5
:1008DE000A128A112130F4007630F300F30B752CD6
:1008EE00F40B752C000038300A128A11CA210A1234
:1008FE008A112130F4007630F300F30B842CF40BC4
:10090E00842C00000C300A128A11CA210A128A1194
:10091E002130F4007630F300F30B932CF40B932C70
:10092E00000001300A128A11CA210A128A112130DE
:10093E00F4007630F300F30BA22CF40BA22C000083
:10094E0008000A128A115F210A128A11D0300A1287
:10095E008A117A210A128A1100300A128A117A211A
:10096E000A128A111E30F8000030F9000A128A119C
:10097E0055220A128A1178080A128A117A210A124D
:10098E008A113B30F8000030F9000A128A11552204
:10099E000A128A1178080A128A117A210A128A1109
:1009AE000B30F8000030F9000A128A1155220A1293
:1009BE008A117808FC007C17FC167C080A128A1132
:1009CE007A210A128A1102300A128A117A210A1227
:1009DE008A111530F8000030F9000A128A115522DA
:1009EE000A128A1178080A128A117A210A128A11B9
:1009FE000730F8000030F9000A128A1155220A1247
:100A0E008A1178080A128A117A210A128A1119306B
:100A1E00F8000030F9000A128A1155220A128A11C2
:100A2E0078080A128A117A210A128A110A128A1178
:100A3E0068210A128A1108000A128A115F210A120D
:100A4E008A11D0300A128A117A210A128A110030C4
:100A5E000A128A117A210A128A110A128A11712136
:100A6E000A128A11D1300A128A117A210A128A11B7
:100A7E000130F0000030F1000A128A1128220A1209
:100A8E008A117108F7007008F6000A128A11032203
:100A9E000A128A11770883120313D8007608D7003A
:100AAE000130F0000030F1000A128A1128220A12D9
:100ABE008A117108F7007008F6000A128A110322D3
:100ACE000A128A11770883120313D6007608D5000E
:100ADE000130F0000030F1000A128A1128220A12A9
:100AEE008A117008FC007C1F7D2D7E2D9B2D7C08AD
:100AFE001F39FA00FB017A08F6007B08F7000A128C
:100B0E008A1103220A128A11770883120313D40062
:100B1E007608D300FC1E942D952D982D5030CA00CA
:100B2E00B22D4130CA00B22D7C083F39FA00FB01CC
:100B3E007A08F6007B08F7000A128A1103220A12BD
:100B4E008A11770883120313D4007608D30020305D
:100B5E00CA002030CB004D30CB000130F000003009
:100B6E00F1000A128A1128220A128A110130F000AD
:100B7E000030F1000A128A1128220A128A11710815
:100B8E00F7007008F6000A128A1103220A128A115F
:100B9E00770883120313D2007608D1000130F000DB
:100BAE000030F1000A128A1128220A128A117108E5
:100BBE00F7007008F6000A128A1103220A128A112F
:100BCE00770883120313D0007608CF000030F000B0
:100BDE00F1000A128A1128220A128A117108F700EE
:100BEE007008F6000A128A1103220A128A11770877
:100BFE0083120313CE007608CD000A128A116821E3
:100C0E000A128A1108000A128A113C240A128A1149
:100C1E0080300A128A11CA210A128A118312031312
:100C2E00B801B901831203133808433E84008313BD
:100C3E0000080A128A11B6210A128A110130831293
:100C4E000313B8070318B90A0030B9073908803AF8
:100C5E00FF0080307F02031D362E06303802031C43
:100C6E00392E3A2E192EC0300A128A11CA210A12B2
:100C7E008A1183120313BA01BB01831203133A08BC
:100C8E003C3E8400831300080A128A11B6210A1210
:100C9E008A11013083120313BA070318BB0A0030FE
:100CAE00BB073B08803AFF0080307F02031D612E98
:100CBE0006303A02031C642E652E442E0030831239
:100CCE000313B0000030AF000030AE006430AD0052
:100CDE000A128A11C9220A128A110A128A11A8242A
:100CEE000A128A110D3083120313B700AF30B6000B
:100CFE00B530B500B50B812EB60B812EB70B812EFC
:100D0E00882E0A128A1123250A128A1185300A1298
:100D1E008A11CA210A128A110A30F0000030F1003D
:100D2E00831203135408F3005308F2000A128A11B7
:100D3E0073230A128A117008303E0A128A11B621E4
:100D4E000A128A110A30F0000030F10083120313E8
:100D5E005408F3005308F2000A128A111C230A12D7
:100D6E008A117008303E0A128A11B6210A128A11AF
:100D7E003A300A128A11B6210A128A110A30F0008C
:100D8E000030F100831203135608F3005508F200E9
:100D9E000A128A1173230A128A117008303E0A123F
:100DAE008A11B6210A128A110A30F0000030F100C1
:100DBE00831203135608F3005508F2000A128A1123
:100DCE001C230A128A117008303E0A128A11B621AB
:100DDE000A128A113A300A128A11B6210A128A119F
:100DEE000A30F0000030F100831203135808F300AC
:100DFE005708F2000A128A1173230A128A11700818
:100E0E00303E0A128A11B6210A128A110A30F000F7
:100E1E000030F100831203135808F3005708F20054
:100E2E000A128A111C230A128A117008303E0A1205
:100E3E008A11B6210A128A1120300A128A11B6219D
:100E4E000A128A11831203134A080A128A11B62152
:100E5E000A128A11831203134B080A128A11B62141
:100E6E000A128A11C5300A128A11CA210A128A116F
:100E7E000A30F0000030F100831203135208F30021
:100E8E005108F2000A128A1173230A128A1170088D
:100E9E00303E0A128A11B6210A128A110A30F00067
:100EAE000030F100831203135208F3005108F200D0
:100EBE000A128A111C230A128A117008303E0A1275
:100ECE008A11B6210A128A112F300A128A11B621FE
:100EDE000A128A110A30F0000030F1008312031357
:100EEE005008F3004F08F2000A128A1173230A12F7
:100EFE008A117008303E0A128A11B6210A128A111E
:100F0E000A30F0000030F100831203135008F30092
:100F1E004F08F2000A128A111C230A128A11700855
:100F2E00303E0A128A11B6210A128A112F300A1285
:100F3E008A11B6210A128A110A30F0000030F1002F
:100F4E00831203134E08F3004D08F2000A128A11A1
:100F5E0073230A128A117008303E0A128A11B621C2
:100F6E000A128A110A30F0000030F10083120313C6
:100F7E004E08F3004D08F2000A128A111C230A12C1
:100F8E008A117008303E0A128A11B6210A128A118D
:100F9E001A3083120313B7005E30B6006D30B50001
:100FAE00B50BD72FB60BD72FB70BD72FDE2F882E1B
:100FBE000A128A11002883134D30FD000130FE0005
:100FCE009230FF003C3084000A128A11A7210A12C7
:100FDE008A11CD01CE01CF01D001D101D201D301B1
:100FEE00D401D501D601D701D80183010A128A1185
:020FFE000A2EB9
:02400E003A3F37
:00000001FF
