:060000000A128A11E62F2E
:100810004134443443342034563441344C34553418
:1008200045343A342034F2008312031386157208DB
:1008300088000614FE308605C330F100CD30F0008C
:10084000F00B202CF10B202C0800F200F730831263
:1008500003138605720888000614FE308605C3302F
:10086000F100CD30F000F00B332CF10B332C0800ED
:10087000FB308316031387000C3083120313970099
:10088000063092005E308316031392008312031326
:100890009101121508007E088A007F0882000A1262
:1008A0008A114B240A128A118000840A04087D06EA
:1008B00003190034FF0A0319FE0A4F2C7008710453
:1008C0000319632C642C912C0130F400702C01303E
:1008D0000310F00DF10DFF3E031D682C0130F407ED
:1008E000F11F732C742C672C71087302031D7A2C72
:1008F00070087202031C7D2C7E2C842C7008F2027E
:100900007108031CF303F30201300310F10CF00C27
:10091000FF3E031D852C0130F402031D902C912C09
:10092000742C7308F1007208F0000800F901FA0154
:100930007508760403199D2C9E2CD32C0130FB00E6
:10094000AA2C01300310F50DF60DFF3E031DA22C5D
:100950000130FB07F61FAD2CAE2CA12C013003108B
:10096000F90DFA0DFF3E031DAF2C76087802031D2A
:10097000BB2C75087702031CBE2CBF2CC62C750837
:10098000F7027608031CF803F8027914013003100B
:10099000F60CF50CFF3E031DC72C0130FB02031DB6
:1009A000D22CD32CAE2C7A08F6007908F50008007A
:1009B0000030FC000030FB000030FA000030F9008D
:1009C000701CE32CE42CFB2C7408F9077508031148
:1009D0000318013E0319ED2CFA07760803110318DA
:1009E000013E0319F42CFB07770803110318013E9D
:1009F0000319FB2CFC070130F8000310F40DF50D72
:100A0000F60DF70DF80BFD2C01300310F30CF20C72
:100A1000F10CF00CFF3E031D052D730872047104E8
:100A20007004031D142D152DE02C7C08F3007B08A9
:100A3000F2007A08F1007908F00008008316031329
:100A400086018801831203138601880130300A125F
:100A50008A1125240A128A11C330F400CD30F30024
:100A6000F30B302DF40B302D30300A128A1125246F
:100A70000A128A11C330F400CD30F300F30B3E2D7F
:100A8000F40B3E2D30300A128A1125240A128A11E5
:100A9000C330F400CD30F300F30B4C2DF40B4C2D90
:100AA00038300A128A1125240A128A11C330F40040
:100AB000CD30F300F30B5A2DF40B5A2D0C300A12E3
:100AC0008A1125240A128A11C330F400CD30F300B4
:100AD000F30B682DF40B682D01300A128A112524BE
:100AE0000A128A11C330F400CD30F300F30B762DD7
:100AF000F40B762D8E30831603139F008130831202
:100B000003139F001430F4007930F300F30B862DAB
:100B1000F40B862D8B2D08006430F5000030F600B4
:100B20007D08F3007C08F200E830F0000330F100AB
:100B30000A128A115E240A128A117108F8007008DC
:100B4000F7000A128A1196240A128A117508831274
:100B50000313A2000A30F5000030F6007D08F30010
:100B60007C08F2006430F0000030F1000A128A11B3
:100B70005E240A128A117108F8007008F7000A1240
:100B80008A1196240A128A11750883120313A10090
:100B90000A30F0000030F1007D08F3007C08F2001C
:100BA0000A128A115E240A128A1170088312031332
:100BB000A0008A300A128A1125240A128A1183128F
:100BC00003132208303E0A128A1113240A128A11D2
:100BD000831203132108303E0A128A1113240A12C9
:100BE0008A11831203132008303E0A128A1113243B
:100BF0000A128A110800831203133608C20037084C
:100C0000C3003808C4003908C5003208C2023308DE
:100C1000031C330F0C2E0D2EC3023408031C340F9B
:100C2000122E132EC4023508031C350F182E192E50
:100C3000C5024508A3004408A2004308A1004208D9
:100C4000A0002E08C6002F08C7003008C8003108D1
:100C5000C9003208C6023308031C330F302E312E70
:100C6000C7023408031C340F362E372EC80235084D
:100C7000031C350F3C2E3D2EC9024908F3004808DD
:100C8000F2004708F1004608F0003E08CA003F089D
:100C9000CB004008CC004108CD003A08CA023B080E
:100CA000031C3B0F542E552ECB023C08031C3C0F5B
:100CB0005A2E5B2ECC023D08031C3D0F602E612E88
:100CC000CD024D08F7004C08F6004B08F5004A0825
:100CD000F4000A128A11D8240A128A1173088312A6
:100CE0000313A7007208A6007108A5007008A400ED
:100CF0000A128A1188260A128A11831203133A08EB
:100D00002007AE003B0803183B0A2107AF0008008C
:100D100083120313A901A31F8E2E8F2E9C2EA009D0
:100D2000A109A209A309A00A0319A10A0319A20A89
:100D30000319A30A0130A900A71F9F2EA02EAD2ED4
:100D4000A409A509A609A709A40A0319A50A031954
:100D5000A60A0319A70A0130A9060030AD00003029
:100D6000AC000030AB000030AA00230822042104AC
:100D700020040319BC2EBD2E082F0130A800CB2E55
:100D80000130FD000310A00DA10DA20DA30DFD0B60
:100D9000C22E0130A807A31FCE2ECF2EC02E0130A9
:100DA000FD000310AA0DAB0DAC0DAD0DFD0BD12E4A
:100DB00023082702031DE62E22082602031DE62E25
:100DC00021082502031DE62E20082402031CE92E1B
:100DD000EA2EF92E2008A4022108031C210FA502E7
:100DE0002208031C220FA6022308031C230FA702BC
:100DF0002A1401300310A30CA20CA10CA00CFF3E7E
:100E0000031DFA2E0130A802031D072F082FCF2E35
:100E1000290803190C2F0D2F182FAA09AB09AC09AB
:100E2000AD09AA0A0319AB0A0319AC0A0319AD0AE2
:100E30002D08A3002C08A2002B08A1002A08A0005E
:100E400008000A128A1138240A128A110A128A1119
:100E50001E250A128A1180300A128A1125240A12CC
:100E60008A1183120313D101D20183120313510893
:100E7000533E8400831300080A128A1113240A12B5
:100E80008A11013083120313D1070318D20A0030EC
:100E9000D2075208803AFF0080307F02031D522F94
:100EA0000A305102031C552F562F352F831203137E
:100EB0001F151F195C2F5D2F592F1E08CE00CF0163
:100EC0004E08E4004F08E500831603131E08831242
:100ED0000313CE00CF014E08E2004F08E300640880
:100EE000CF00CE0162084E04DE0063084F04DF002D
:100EF0005E08AE005F08AF00B001B1010030B50080
:100F00000030B4000030B3000030B2000030B9004F
:100F10000030B8000330B700FF30B6000030BD002D
:100F20000030BC000030BB000030BA000030C1000F
:100F30000030C0000130BF005230BE000A128A11DA
:100F4000FB250A128A11831203132F08E1002E08D1
:100F5000E0006108CF006008CE000310CF0CCE0C7B
:100F60000310CF0CCE0C4E08950060080339CE005C
:100F700004300310CE0DFF3E031DB92F1708CF39E3
:100F80004E0497008A300A128A1125240A128A1107
:100F9000831203136108FD006008FC000A128A1125
:100FA0008C250A128A11023083120313D000863076
:100FB000CF009830CE00CE0BDB2FCF0BDB2FD00B2A
:100FC000DB2F0000562F0A128A11002883135E308F
:100FD000FD000430FE000830FF00533084000A1288
:100FE0008A114F240A128A11DE01DF01E001E101BA
:100FF000E201E301E401E50183010A128A11212FD4
:00000001FF
