:060000000A128A11E62F2E
:1005DC004334483434343A344334483431343A3480
:1005EC00C730831203139F059F150330F000F00BE7
:1005FC00FD2A0800C730831203139F059F16033092
:10060C00F000F00B072B08007E088A007F088200A0
:10061C000A128A110A230A128A118000840A040819
:10062C007D0603190034FF0A0319FE0A0E2BF20093
:10063C008312031387157208880007144130F100E8
:10064C00EE30F000F00B282BF10B282B0000FE30C5
:10065C008312031387050800F200F730831203138B
:10066C0087057208880007144130F100EE30F00065
:10067C00F00B3E2BF10B3E2B0000FE3083120313CC
:10068C0087050800FF3083160313850083120313BC
:10069C009F018930831603139F00831203131F14C9
:1006AC000730F1007D30F000F00B5A2BF10B5A2B78
:1006BC000800770878040319642B652B922B013002
:1006CC00FB00712B01300310F70DF80DFF3E031DDD
:1006DC00692B0130FB07F81F742B752B682B7808DE
:1006EC007A02031D7B2B77087902031C7E2B7F2B50
:1006FC00852B7708F9027808031CFA03FA020130FB
:10070C000310F80CF70CFF3E031D862B0130FB0287
:10071C00031D912B922B752B7A08F8007908F700A2
:10072C000800F401F5017008710403199E2B9F2B2E
:10073C00D42B0130F600AB2B01300310F00DF10D72
:10074C00FF3E031DA32B0130F607F11FAE2BAF2B81
:10075C00A22B01300310F40DF50DFF3E031DB02B41
:10076C0071087302031DBC2B70087202031CBF2B93
:10077C00C02BC72B7008F2027108031CF303F302A1
:10078C00741401300310F10CF00CFF3E031DC82B48
:10079C000130F602031DD32BD42BAF2B7508F100BF
:1007AC007408F00008000030FC000030FB00003042
:1007BC00FA000030F900701CE42BE52BFC2B7408BC
:1007CC00F907750803110318013E0319EE2BFA07FC
:1007DC00760803110318013E0319F52BFB07770864
:1007EC0003110318013E0319FC2BFC070130F80020
:1007FC000310F40DF50DF60DF70DF80BFE2B013073
:10080C000310F30CF20CF10CF00CFF3E031D062C44
:10081C007308720471047004031D152C162CE12B43
:10082C007C08F3007B08F2007A08F1007908F000EC
:10083C0008008316031387018801831203138701B1
:10084C00880130300A128A1132230A128A1141307F
:10085C00F400EE30F300F30B312CF40B312C0000D0
:10086C0030300A128A1132230A128A114130F400F4
:10087C00EE30F300F30B402CF40B402C0000303026
:10088C000A128A1132230A128A114130F400EE3016
:10089C00F300F30B4F2CF40B4F2C000038300A12E2
:1008AC008A1132230A128A114130F400EE30F3001F
:1008BC00F30B5E2CF40B5E2C00000C300A128A1128
:1008CC0032230A128A114130F400EE30F300F30B9C
:1008DC006D2CF40B6D2C000001300A128A1132239E
:1008EC000A128A114130F400EE30F300F30B7C2C29
:1008FC00F40B7C2C00000800831203133608C20092
:10090C003708C3003808C4003908C5003208C202D1
:10091C003308031C330F932C942CC3023408031C90
:10092C00340F992C9A2CC4023508031C350F9F2CBC
:10093C00A02CC5024508A3004408A2004308A1004E
:10094C004208A0002E08C6002F08C7003008C800B7
:10095C003108C9003208C6023308031C330FB72C08
:10096C00B82CC7023408031C340FBD2CBE2CC80293
:10097C003508031C350FC32CC42CC9024908F300DD
:10098C004808F2004708F1004608F0003E08CA008B
:10099C003F08CB004008CC004108CD003A08CA0201
:1009AC003B08031C3B0FDB2CDC2CCB023C08031C50
:1009BC003C0FE12CE22CCC023D08031C3D0FE72C34
:1009CC00E82CCD024D08F7004C08F6004B08F5005A
:1009DC004A08F4000A128A11D9230A128A117308E0
:1009EC0083120313A7007208A6007108A5007008F3
:1009FC00A4000A128A110F250A128A1183120313FA
:100A0C003A082007AE003B0803183B0A2107AF0049
:100A1C00080083120313A901A31F152D162D232DD6
:100A2C00A009A109A209A309A00A0319A10A031983
:100A3C00A20A0319A30A0130A900A71F262D272DEE
:100A4C00342DA409A509A609A709A40A0319A50A06
:100A5C000319A60A0319A70A0130A9060030AD0034
:100A6C000030AC000030AB000030AA002308220498
:100A7C00210420040319432D442D8F2D0130A8008F
:100A8C00522D0130FD000310A00DA10DA20DA30DE0
:100A9C00FD0B492D0130A807A31F552D562D472DB1
:100AAC000130FD000310AA0DAB0DAC0DAD0DFD0B0F
:100ABC00582D23082702031D6D2D22082602031D25
:100ACC006D2D21082502031D6D2D20082402031C09
:100ADC00702D712D802D2008A4022108031C210FDC
:100AEC00A5022208031C220FA6022308031C230FB5
:100AFC00A7022A1401300310A30CA20CA10CA00C09
:100B0C00FF3E031D812D0130A802031D8E2D8F2D5C
:100B1C00562D29080319932D942D9F2DAA09AB0945
:100B2C00AC09AD09AA0A0319AB0A0319AC0A0319DB
:100B3C00AD0A2D08A3002C08A2002B08A1002A083E
:100B4C00A000080004307D02003003197C02031C55
:100B5C00B02DB12DB52DFF30FC000330FD000A3057
:100B6C00F7000030F8007D08FA007C08F9000A1242
:100B7C008A115F230A128A11770883120313A300C8
:100B8C000A30F7000030F8000A30F0000030F100B5
:100B9C007D08F3007C08F2000A128A1197230A12CE
:100BAC008A117108FA007008F9000A128A115F2381
:100BBC000A128A11770883120313A2000A30F70075
:100BCC000030F8006430F0000030F1007D08F300D4
:100BDC007C08F2000A128A1197230A128A117108F2
:100BEC00FA007008F9000A128A115F230A128A119E
:100BFC00770883120313A1000A30F7000030F800C5
:100C0C00E830F0000330F1007D08F3007C08F200BE
:100C1C000A128A1197230A128A117108FA007008B5
:100C2C00F9000A128A115F230A128A1177088312BB
:100C3C000313A00000307D020A3003197C02031854
:100C4C00282E292E452E20300A128A111D230A1215
:100C5C008A1120300A128A111D230A128A1120309F
:100C6C000A128A111D230A128A11831203132308F4
:100C7C00303E0A128A111D230A128A11BA2E003034
:100C8C007D02643003197C0203184D2E4E2E6D2EFE
:100C9C0020300A128A111D230A128A1120300A12DE
:100CAC008A111D230A128A11831203132208303E63
:100CBC000A128A111D230A128A11831203132308A4
:100CCC00303E0A128A111D230A128A11BA2E0330E1
:100CDC007D02E83003197C020318752E762E982EAF
:100CEC0020300A128A111D230A128A11831203134F
:100CFC002108303E0A128A111D230A128A1183120E
:100D0C0003132208303E0A128A111D230A128A117B
:100D1C00831203132308303E0A128A111D230A1270
:100D2C008A11BA2E2008303E0A128A111D230A128B
:100D3C008A11831203132108303E0A128A111D23D3
:100D4C000A128A11831203132208303E0A128A11E6
:100D5C001D230A128A11831203132308303E0A1230
:100D6C008A111D230A128A1108000A128A111F24E3
:100D7C000A128A110A128A1148230A128A11803027
:100D8C000A128A1132230A128A1183120313D00118
:100D9C00D101831203135008603E840083130008B2
:100DAC000A128A111D230A128A11013083120313AD
:100DBC00D0070318D10A0030D1075108803AFF0040
:100DCC0080307F02031DEC2E04305002031CEF2EEA
:100DDC00F02ECF2EC0300A128A1132230A128A1139
:100DEC0083120313D201D3018312031352085C3E06
:100DFC008400831300080A128A111D230A128A1117
:100E0C00013083120313D2070318D30A0030D3071F
:100E1C005308803AFF0080307F02031D172F0430E7
:100E2C005202031C1A2F1B2FFA2E0A128A11F622B9
:100E3C000A128A11023083120313CE00CE0B242F18
:100E4C000000831203131F151F192D2F2E2F2A2F6D
:100E5C001E08CE00CF014E08DA004F08DB008316C7
:100E6C0003131E0883120313CE00CF014E08D800C3
:100E7C004F08D9005A08CF00CE0158084E04D400B0
:100E8C0059084F04D50084300A128A1132230A12F1
:100E9C008A11831203135508FD005408FC000A1232
:100EAC008A11A8250A128A11073083120313CF0066
:100EBC007C30CE00CE0B602FCF0B602F00000A12BF
:100ECC008A1100230A128A11023083120313CE00F6
:100EDC00CE0B6E2F0000831203131F151F19772FD3
:100EEC00782F742F1E08CE00CF014E08DA004F0861
:100EFC00DB00831603131E0883120313CE00CF01ED
:100F0C004E08D8004F08D9005A08CF00CE01580817
:100F1C004E04D40059084F04D5005408AE005508AF
:100F2C00AF00B001B1010030B5000030B4000030AA
:100F3C00B3000030B2000030B9000030B80003300C
:100F4C00B700FF30B6000030BD000030BC000030F0
:100F5C00BB000030BA000030C1000030C0000030CF
:100F6C00BF008730BE000A128A1182240A128A112D
:100F7C00831203132F08D7002E08D6000030570217
:100F8C00863003195602031CCC2FCD2FD12F87305E
:100F9C00D6000030D700C4300A128A1132230A124C
:100FAC008A11831203135708FD005608FC000A121D
:100FBC008A11A8250A128A111B2F0A128A110028DD
:100FCC0083136430FD000230FE00EE30FF005C3015
:100FDC0084000A128A110E230A128A11D401D50137
:100FEC00D601D701D801D901DA01DB0183010A123C
:040FFC008A11BB2E6D
:02400E00BA3FB7
:00000001FF
