:060000000A128A11E62F2E
:10088C00433461346C342E3456346F346C347434D9
:10089C003A34203400347E088A007F0882000A1221
:1008AC008A1151240A128A118000840A04087D06D8
:1008BC0003190034FF0A0319FE0A552CF2008312A7
:1008CC00031387157208880007144130F100EE30CD
:1008DC00F000F00B6F2CF10B6F2C0000FE3083122C
:1008EC00031387050800F200F73083120313870502
:1008FC007208880007144130F100EE30F000F00B64
:10090C00852CF10B852C0000FE3083120313870518
:10091C000800770878040319942C952CC22C01300C
:10092C00FB00A12C01300310F70DF80DFF3E031D49
:10093C00992C0130FB07F81FA42CA52C982C7808B7
:10094C007A02031DAB2C77087902031CAE2CAF2C5A
:10095C00B52C7708F9027808031CFA03FA02013067
:10096C000310F80CF70CFF3E031DB62C0130FB02F4
:10097C00031DC12CC22CA52C7A08F8007908F700AD
:10098C000800F401F501700871040319CE2CCF2C6A
:10099C00042D0130F600DB2C01300310F00DF10DAD
:1009AC00FF3E031DD32C0130F607F11FDE2CDF2C8C
:1009BC00D22C01300310F40DF50DFF3E031DE02C7D
:1009CC0071087302031DEC2C70087202031CEF2CCF
:1009DC00F02CF72C7008F2027108031CF303F302DD
:1009EC00741401300310F10CF00CFF3E031DF82CB5
:1009FC000130F602031D032D042DDF2C7508F100C8
:100A0C007408F00008000030FC000030FB000030DF
:100A1C00FA000030F900701C142D152D2C2D7408C3
:100A2C00F907750803110318013E03191E2DFA0767
:100A3C00760803110318013E0319252DFB077708CF
:100A4C0003110318013E03192C2DFC070130F8008B
:100A5C000310F40DF50DF60DF70DF80B2E2D0130DE
:100A6C000310F30CF20CF10CF00CFF3E031D362DB1
:100A7C007308720471047004031D452D462D112D4D
:100A8C007C08F3007B08F2007A08F1007908F0008A
:100A9C0008000A30F7000030F8007D08FA007C08E6
:100AAC00F9000A128A118F240A128A11770883120C
:100ABC000313A1000A30F7000030F8000A30F000F0
:100ACC000030F1007D08F3007C08F2000A128A1154
:100ADC00C7240A128A117108FA007008F9000A1268
:100AEC008A118F240A128A11770883120313A0002B
:100AFC0000307D020A3003197C020318862D872DE5
:100B0C00972D20300A128A1164240A128A1183123A
:100B1C0003132108303E0A128A1164240A128A1126
:100B2C00A72D2008303E0A128A1164240A128A1159
:100B3C00831203132108303E0A128A1164240A120C
:100B4C008A1108008316031387018801831203138B
:100B5C008701880130300A128A1179240A128A110D
:100B6C004130F400EE30F300F30BBA2DF40BBA2D38
:100B7C00000030300A128A1179240A128A1141308D
:100B8C00F400EE30F300F30BC92DF40BC92D00006B
:100B9C0030300A128A1179240A128A114130F40079
:100BAC00EE30F300F30BD82DF40BD82D00003830B9
:100BBC000A128A1179240A128A114130F400EE309B
:100BCC00F300F30BE72DF40BE72D00000C300A12A9
:100BDC008A1179240A128A114130F400EE30F300A4
:100BEC00F30BF62DF40BF62D000001300A128A11CE
:100BFC0079240A128A114130F400EE30F300F30B21
:100C0C00052EF40B052E00008E30831603139F0067
:100C1C008130831203139F000730F4007D30F30002
:100C2C00F30B162EF40B162E080083120313360842
:100C3C00C2003708C3003808C4003908C5003208A0
:100C4C00C2023308031C330F2C2E2D2EC302340882
:100C5C00031C340F322E332EC4023508031C350FFF
:100C6C00382E392EC5024508A3004408A2004308BB
:100C7C00A1004208A0002E08C6002F08C7003008AB
:100C8C00C8003108C9003208C6023308031C330FF0
:100C9C00502E512EC7023408031C340F562E572EDB
:100CAC00C8023508031C350F5C2E5D2EC90249089D
:100CBC00F3004808F2004708F1004608F0003E082F
:100CCC00CA003F08CB004008CC004108CD003A08D0
:100CDC00CA023B08031C3B0F742E752ECB023C083A
:100CEC00031C3C0F7A2E7B2ECC023D08031C3D0FBF
:100CFC00802E812ECD024D08F7004C08F6004B08D3
:100D0C00F5004A08F4000A128A1109250A128A1100
:100D1C00730883120313A7007208A6007108A500BC
:100D2C007008A4000A128A11A8260A128A118312CA
:100D3C0003133A082007AE003B0803183B0A2107AF
:100D4C00AF00080083120313A901A31FAE2EAF2E10
:100D5C00BC2EA009A109A209A309A00A0319A10A82
:100D6C000319A20A0319A30A0130A900A71FBF2E59
:100D7C00C02ECD2EA409A509A609A709A40A0319FA
:100D8C00A50A0319A60A0319A70A0130A9060030FF
:100D9C00AD000030AC000030AB000030AA002308DE
:100DAC002204210420040319DC2EDD2E282F01300F
:100DBC00A800EB2E0130FD000310A00DA10DA20D1B
:100DCC00A30DFD0BE22E0130A807A31FEE2EEF2E74
:100DDC00E02E0130FD000310AA0DAB0DAC0DAD0DD6
:100DEC00FD0BF12E23082702031D062F22082602D5
:100DFC00031D062F21082502031D062F200824029F
:100E0C00031C092F0A2F192F2008A4022108031CE8
:100E1C00210FA5022208031C220FA6022308031C83
:100E2C00230FA7022A1401300310A30CA20CA10C4F
:100E3C00A00CFF3E031D1A2F0130A802031D272F03
:100E4C00282FEF2E290803192C2F2D2F382FAA0904
:100E5C00AB09AC09AD09AA0A0319AB0A0319AC0A10
:100E6C000319AD0A2D08A3002C08A2002B08A10021
:100E7C002A08A00008000A128A11A8250A128A1151
:100E8C0080300A128A1179240A128A1183120313F0
:100E9C00D001D101831203135008523E84008313F6
:100EAC0000080A128A1164240A128A110130831272
:100EBC000313D0070318D10A0030D1075108803A28
:100ECC00FF0080307F02031D6D2F0A305002031C7F
:100EDC00702F712F502F831203131F151F19772F8B
:100EEC00782F742F1E08CE00CF014E08E3004F0858
:100EFC00E400831603131E0883120313CE00CF01E4
:100F0C004E08E1004F08E2006308CF00CE016108F3
:100F1C004E04DD0062084F04DE005D08AE005E0882
:100F2C00AF00B001B1010030B5000030B4000030AA
:100F3C00B3000030B2000030B9000030B80003300C
:100F4C00B700FF30B6000030BD000030BC000030F0
:100F5C00BB000030BA000030C1000030C0000030CF
:100F6C00BF003030BE000A128A111B260A128A11E9
:100F7C00831203132F08E0002E08DF008A300A12B8
:100F8C008A1179240A128A11003083120313600229
:100F9C002F3003195F02031CD42FD52FD92F3030DB
:100FAC00DF000030E0006008FD005F08FC000A1262
:100FBC008A114F250A128A11712F0A128A110028E0
:100FCC0083135D30FD000430FE004630FF005230CC
:100FDC0084000A128A1155240A128A11DD01DE01DD
:100FEC00DF01E001E101E201E301E40183010A1206
:040FFC008A11412FE6
:00000001FF
