:060000000A128A110C280F
:10000800FE00030EF0000A08F1000A128A113F28C8
:100018000A128A110F28F501F60183010A128A11C2
:1000280015280A128A115F200A128A1183120313F3
:1000380087010430F400CF30F3000130F200F20BF6
:100048002328F30B2328F40B23282A28FF308312B4
:10005800031387000430F400CF30F3000130F200BE
:10006800F20B3428F30B3428F40B34283B281A28D5
:100078000A128A110C28831203130C1C44284528E1
:1000880058280130F5070318F60A0030F60716302D
:1000980075067604031D5128522856280809880039
:1000A800F501F601FE308C0571088A00700E830098
:1000B800FE0E7E0E09008316031387018801831242
:1000C800031387018801013090008F018E018B177F
:1000D8000B17831603130C14FE30831203138C05BD
:0200E80008000E
:02400E00723FFF
:00000001FF
