:020000040000FA
:060000000A128A11DE2F36
:100B1400053406340734083409340A128A11B62518
:100B24000A128A1183160313911408000A128A11F7
:100B3400B6250A128A1183160313111408000A1227
:100B44008A11B6250A128A11831603131115080097
:100B54008316031391120A128A11B6250A128A11F6
:100B64008316031311160800B72D831603131419E3
:100B7400BC2DBD2DB72D11081F39031DC22DC32D4A
:100B8400B72DC42D0800F0000A128A11B6250A12E6
:100B94008A117008831203139300D02D8C1DD32D5A
:100BA400D42DD02D8C11003083160313111B01306A
:100BB400DB2D08000A128A11B6250A128A1183163F
:100BC40003139115E52D83128C1DE92DEA2DE52DD6
:100BD4008C110A128A11B6250A128A118312031380
:100BE4001308F42D0800283083120313940083168D
:100BF40003139101831203132008A4002108A50004
:100C04002208A6002308A70002300310A40DA50D96
:100C1400A60DA70DFF3E031D072E2708F300260887
:100C2400F2002508F1002408F0000030F700F43049
:100C3400F6002430F5000030F4000A128A11D6269A
:100C44000A128A117008FF3E83160313930094015D
:100C54008715071608000A128A1198250A128A11A4
:100C6400382E0A128A118F250A128A11A0300A120C
:100C74008A11C5250A128A11003A031D422E432EF9
:100C8400332E442E72080A128A11C5250A128A11BB
:100C940071080A128A11C5250A128A11F701F8018E
:100CA400662E77087307F50075088400831300081F
:100CB4000A128A11C5250A128A110130F70703188E
:100CC400F80A0030F807662E7408F500F601760875
:100CD4007802031D6F2E75087702031C722E732E83
:100CE400532E742E0A128A11A1250A128A110800A1
:100CF4000A128A1198250A128A11852E0A128A115B
:100D04008F250A128A11A0300A128A11C5250A12E7
:100D14008A11003A031D8F2E902E802E912E720878
:100D24000A128A11C5250A128A1171080A128A1137
:100D3400C5250A128A110A128A118F250A128A11EC
:100D4400A1300A128A11C5250A128A11F801F90183
:100D5400C52E0A128A11DC250A128A11F6007808B7
:100D64007307F700770884007608831380000A125B
:100D74008A11AA250A128A110130F8070318F90A00
:100D84000030F907C52E75087902031DCB2E7408AF
:100D94007802031CCE2ECF2EAB2ED02E0A128A112F
:100DA400A1250A128A1108000030FC000030FB0063
:100DB4000030FA000030F900730872047104700402
:100DC4000319E52EE62E392FFD01FD0AF72E013019
:100DD400F8000310F00DF10DF20DF30DF80BEB2EEE
:100DE4000130F8007808FD07F72EF31FFA2EFB2ECA
:100DF400E92EFD2EFD2E0130F8000310F90DFA0D39
:100E0400FB0DFC0DF80BFF2E73087702031D142F46
:100E140072087602031D142F71087502031D142F26
:100E240070087402031C172F182F282F7008F4025F
:100E34007108031C710FF5027208031C720FF6028D
:100E44007308031C730FF7027914282F0130031061
:100E5400F30CF20CF10CF00CFF3E031D292F0130B2
:100E6400FD02031D362F372FFD2E392F392F7C0815
:100E7400F3007B08F2007A08F1007908F000422FB1
:100E84000800003083120313A3000130A20086304F
:100E9400A100A030A0000A128A11F5250A128A11B5
:100EA400203083120313B5000030B6002B308400C9
:100EB400390883138000840A3A088000840A3B08B6
:100EC4008000840A3C088000840A3D0880003608BB
:100ED400F2003508F1002B30A8002808F300053093
:100EE400A9002908F4000A128A112D260A128A116F
:100EF400343083120313A900F130A800A80B802F0B
:100F0400A90B802F83160313880183120313360859
:100F1400F2003508F1003030A8002808F30005304D
:100F2400F4000030F5000A128A117A260A128A1196
:100F340083120313B701B8013808803AFF008030E8
:100F44007F02031DA72F05303702031CAA2FAB2FE6
:100F5400AD2FDA2FDA2F831203133708303E8400C3
:100F6400831300088800153083120313AA004B3042
:100F7400A900BD30A800A80BBD2FA90BBD2FAA0B3B
:100F8400BD2FC42F013083120313B7070318B80A07
:100F94000030B8073808803AFF0080307F02031D14
:100FA400D52F05303702031CD82FD92FAD2FDA2FB8
:100FB400DA2F0A128A1100280A128A118A250A12C3
:100FC4008A11B9000A128A118B250A128A11BA00F1
:100FD4000A128A118C250A128A11BB000A128A117C
:100FE4008D250A128A11BC000A128A118E250A1252
:0C0FF4008A11BD0083010A128A11432FEC
:02400E003A3F37
:00000001FF
