:100000000A128A11E62F00308A000408840A820747
:1000100000343734383439342534343435343634D4
:1000200058343134323433342D34433430343D3465
:020030002B346F
:1007520052344534533455344C3454343A340034DE
:100762007E088A007F0882000A128A11B1230A12C7
:100772008A118000840A04087D0603190034FF0AE6
:100782000319FE0AB52B83120313871507140330CE
:10079200F2008A30F1005530F000F00BCE2BF10B55
:1007A200CE2BF20BCE2BD52BFE30831203138705F3
:1007B2000800F300F73083120313870573088800DB
:1007C20007140330F2008A30F1005530F000F00BCC
:1007D200E82BF10BE82BF20BE82BEF2BFE30831208
:1007E200031387050800F401F501701CF92BFA2B9D
:1007F200002C7208F4070318F50A7308F507013094
:100802000310F20DF30DFF3E031D012C0130031006
:10081200F10CF00CFF3E031D082C70087104031D3F
:10082200132C142CF62B7508F1007408F000080044
:100832007008710403191E2C1F2C4C2C0130F4007B
:100842002B2C01300310F00DF10DFF3E031D232C64
:100852000130F407F11F2E2C2F2C222C7108730269
:10086200031D352C70087202031C382C392C3F2CC6
:100872007008F2027108031CF303F3020130031043
:10088200F10CF00CFF3E031D402C0130F402031D5D
:100892004B2C4C2C2F2C7308F1007208F00008002E
:1008A200F901FA01750876040319582C592C8E2C7B
:1008B2000130FB00652C01300310F50DF60DFF3EF3
:1008C200031D5D2C0130FB07F61F682C692C5C2C84
:1008D20001300310F90DFA0DFF3E031D6A2C760854
:1008E2007802031D762C75087702031C792C7A2C6A
:1008F200812C7508F7027608031CF803F8027914B4
:1009020001300310F60CF50CFF3E031D822C013062
:10091200FB02031D8D2C8E2C692C7A08F6007908B7
:10092200F50008006430F5000030F6007D08F300A1
:100932007C08F200E830F0000330F1000A128A115C
:1009420019240A128A117108F8007008F7000A12B5
:100952008A1151240A128A11750883120313A20004
:100962000A30F5000030F6007D08F3007C08F20042
:100972006430F0000030F1000A128A1119240A12C0
:100982008A117108F8007008F7000A128A115124BE
:100992000A128A11750883120313A1000A30F000AB
:1009A2000030F1007D08F3007C08F2000A128A117F
:1009B20019240A128A11700883120313A000220854
:1009C200303E0A128A11C4230A128A1183120313B7
:1009D2002108303E0A128A11C4230A128A11831294
:1009E20003132008303E0A128A11C4230A128A1104
:1009F2000800F03083160313860083120313860166
:100A0200F20104307202031C072D082D092D792DE5
:100A12000130F000720A0F2D0310F00DFF3E031D8E
:100A22000D2D7008FF3A0F398600F3010130F000F6
:100A32007308043E013E1F2D0310F00DFF3E031DFF
:100A42001D2D70080605031D272D282D6E2D8230C1
:100A5200F100DD30F000F00B2C2DF10B2C2D312D9F
:100A62000130F0007308043E013E392D0310F00DF1
:100A7200FF3E031D372D7008831203130605031969
:100A8200432D442D312D8230F100DD30F000F00B8A
:100A9200482DF10B482D4D2D03307206031D522DAA
:100AA200532D5A2D7308031D572D582D5A2D43309F
:100AB2007A2D7208F00002300310F00DFF3E031D84
:100AC2005D2D01307007F1007308710784000A126E
:100AD2008A1103200A128A117A2D0130F307043099
:100AE2007302031C752D762D172D0130F207022D8E
:100AF2000030080083160313870188010330F600D3
:100B02008A30F5005530F400F40B852DF50B852D58
:100B1200F60B852D8C2D30300A128A11DA230A1237
:100B22008A110330F6008A30F5005530F400F40BD8
:100B3200982DF50B982DF60B982D9F2D30300A121B
:100B42008A11DA230A128A110330F6008A30F5007C
:100B52005530F400F40BAB2DF50BAB2DF60BAB2D92
:100B6200B22D30300A128A11DA230A128A110330A6
:100B7200F6008A30F5005530F400F40BBE2DF50B6B
:100B8200BE2DF60BBE2DC52D38300A128A11DA237E
:100B92000A128A110330F6008A30F5005530F4004B
:100BA200F40BD12DF50BD12DF60BD12DD82D0C3008
:100BB2000A128A11DA230A128A110330F6008A30E5
:100BC200F5005530F400F40BE42DF50BE42DF60B93
:100BD200E42DEB2D01300A128A11DA230A128A114E
:100BE2000330F6008A30F5005530F400F40BF72D8F
:100BF200F50BF72DF60BF72DFE2D08007F3083162F
:100C020003138105F0308600FF3083120313860040
:100C12000A128A117B250A128A11C0300A128A111D
:100C2200DA230A128A1183120313AA01AB01831277
:100C320003132A08373E8400831300080A128A111C
:100C4200C4230A128A11013083120313AA0703185C
:100C5200AB0A0030AB072B08803AFF0080307F02DE
:100C6200031D352E07302A02031C382E392E182E6A
:100C7200073083120313A3000030A40020300A12AD
:100C82008A11C4230A128A11013083120313A307A3
:100C92000318A40A0030A4072408803AFF00803019
:100CA2007F02031D562E10302302031C592E5A2E8A
:100CB2003F2E5B2E0A128A11FA240A128A1183121B
:100CC2000313AE002E080319672E682E5B2E4330E5
:100CD2002E06031D6D2E6E2EE82EB501B301B40152
:100CE200B101B201AF01B001B60180300A128A111E
:100CF200DA230A128A1183120313A501A6012030F6
:100D02000A128A11C4230A128A11013083120313B0
:100D1200A5070318A60A0030A6072608803AFF0096
:100D220080307F02031D972E10302502031C9A2E5D
:100D32009B2E802EC0300A128A11DA230A128A11DF
:100D420083120313AC01AD01831203132C08373E47
:100D52008400831300080A128A11C4230A128A111A
:100D6200013083120313AC070318AD0A0030AD073C
:100D72002D08803AFF0080307F02031DC22E07300B
:100D82002C02031CC52EC62EA52E07308312031378
:100D9200A7000030A80020300A128A11C4230A12C8
:100DA2008A11013083120313A7070318A80A00301F
:100DB200A8072808803AFF0080307F02031DE32E37
:100DC20010302702031CE62EE72ECC2E5B2E30308D
:100DD2002E02031CED2EEE2E4E2F3A302E02031859
:100DE200F32EF42E4E2F2E08D03EA9003508031DF7
:100DF200FB2EFC2E252F3408F1003308F0000A30B8
:100E0200F2000030F3000A128A11F4230A128A1146
:100E12008312031329087007B3000030031801304E
:100E22007107B40080300A128A11DA230A128A1179
:100E3200831203133408FD003308FC000A128A11DE
:100E420093240A128A115B2E3208F1003108F00055
:100E52000A30F2000030F3000A128A11F4230A1257
:100E62008A118312031329087007B1000030031896
:100E720001307107B2008A300A128A11DA230A128B
:100E82008A11831203133208FD003108FC000A1292
:100E92008A1193240A128A115B2E2B302E06031913
:100EA200532F542F662F2D302E060319592F5A2FE8
:100EB200662F58302E0603195F2F602F662F2530BC
:100EC2002E06031D652F662F792F2E08B6000130DE
:100ED200B50087300A128A11DA230A128A118312A4
:100EE200031336080A128A11C4230A128A115B2ECE
:100EF2003D302E06031D7E2F7F2F5B2EC32F310820
:100F02003307AF0032080318320A3407B000D12F7A
:100F120031083302AF003208031C320A3402B00037
:100F2200D12F3408F1003308F0003208F300310801
:100F3200F2000A128A11F4230A128A11710883122A
:100F42000313B0007008AF00D12F31083204031927
:100F5200AB2FAC2FC02F3208F6003108F500340851
:100F6200F8003308F7000A128A1151240A128A1172
:100F7200760883120313B0007508AF00D12FAF01BA
:100F8200B001D12F3608253A0319A62F0E3A0319BC
:100F9200802F063A0319892F753A0319922FD12F00
:100FA200C7300A128A11DA230A128A118312031332
:100FB2003008FD002F08FC000A128A1193240A123D
:100FC2008A115B2E0A128A11002883133F30FD001A
:100FD2000330FE00A930FF00373084000A128A1164
:100FE200B5230A128A11AF01B001B101B201B301F6
:0E0FF200B401B501B60183010A128A11FF2D68
:00000001FF
