:060000000A128A110C280F
:10000800FE00030EF0000A08F1000A128A114628C1
:100018000A128A110F28F50183010A128A1114287D
:10002800831603138601880183120313860188014E
:100038000A128A1164200A128A1183120313860194
:100048000330F4008A30F3005530F200F20B2A280E
:10005800F30B2A28F40B2A283128FF3083120313C4
:1000680086000330F4008A30F3005530F200F20BBA
:100078003B28F30B3B28F40B3B28422821280A1283
:100088008A110C28831203130C1C4B284C285D285A
:100098000130F50714307506031D532854285728D6
:1000A80008098800F5013C308F00AF308E00FE3023
:1000B8008C0571088A00700E8300FE0E7E0E090002
:1000C800FD30831203139005EF309005DF30900563
:1000D8003C308F00AF308E00FE308C058316031342
:0E00E8000C140B178B1783120313101408004F
:02400E00723FFF
:00000001FF
