:060000000A128A11FB2F19
:100EF600F0308316031386008312031386018316CC
:100F0600031388018312031388017F3083160313AA
:100F16008105203098009030831203139800093021
:100F2600831603139900071308000A128A117B27F8
:100F36000A128A11831203130608F300BB2F4130ED
:100F460099000330F2008A30F1005530F000F00BC2
:100F5600AA2FF10BAA2FF20BAA2FB12FC92F4230BD
:100F66009900A42F43309900A42F44309900A42F50
:100F76007308703A0319B82FC03A0319B52F603AAF
:100F86000319B22F303A0319A22FC92F8312031364
:100F96008C1ECE2FCF2F9D2F1A08F400EA2F40303B
:100FA60088000330F2008A30F1005530F000F00B73
:100FB600DA2FF10BDA2FF20BDA2FE12F9D2F023009
:100FC6008800D42F42308800D42F8801D42F74088B
:100FD600613A0319D22F033A0319E22F013A031992
:100FE600E52F073A0319E82F9D2F0A128A110028C8
:0A0FF600F40183010A128A11982FFA
:00000001FF
