:060000000A128A11FC2F18
:100BBC000A128A1105260A128A118316031391143C
:100BCC0008000A128A1105260A128A1183160313C9
:100BDC00111408000A128A1105260A128A118316AA
:100BEC000313111508008316031391160A128A11A8
:100BFC0005260A128A118316031311160800831690
:100C0C00031314190A2E0B2E052E11081F39031D60
:100C1C00102E112E052E0800F0000A128A1105263E
:100C2C000A128A1170088312031393008C1D1F2E55
:100C3C00202E1C2E8C11003083160313111B013037
:100C4C0008000A128A1105260A128A118316031348
:100C5C00911583128C1D332E342E2F2E8C110A12CB
:100C6C008A1105260A128A1183120313130808002D
:100C7C000A128A11E7250A128A11492E0A128A11C0
:100C8C00DE250A128A11A0300A128A1112260A12C3
:100C9C008A11003A031D532E542E442E72080A1248
:100CAC008A1112260A128A1171080A128A11122646
:100CBC000A128A1173080A128A1112260A128A1150
:100CCC000A128A11F0250A128A11080028308312A0
:100CDC00031394008316031391018312031320084A
:100CEC00A4002108A5002208A6002308A7000230B2
:100CFC000310A40DA50DA60DA70DFF3E031D7E2E02
:100D0C002708F3002608F2002508F1002408F0005B
:100D1C000030F700F430F6002430F5000030F40019
:100D2C000A128A11E3260A128A117008FF3E8316F2
:100D3C000313930094018715071608000A128A11F1
:100D4C00E7250A128A11AF2E0A128A11DE250A1221
:100D5C008A11A0300A128A1112260A128A11003A3C
:100D6C00031DB92EBA2EAA2E72080A128A11122647
:100D7C000A128A1171080A128A1112260A128A1191
:100D8C000A128A11DE250A128A11A1300A128A115E
:100D9C0012260A128A110A128A1127260A128A119D
:100DAC00F3000A128A11F9250A128A110A128A1101
:100DBC00F0250A128A11730808000030FC0000307C
:100DCC00FB000030FA000030F90073087204710463
:100DDC0070040319F22EF32E3E2F0130FD00012F6B
:100DEC000130F8000310F00DF10DF20DF30DF80BBE
:100DFC00F82E0130FD07F31F042F052FF62E0130BE
:100E0C00F8000310F90DFA0DFB0DFC0DF80B072F74
:100E1C0073087702031D1C2F72087602031D1C2F0A
:100E2C0071087502031D1C2F70087402031C1F2F00
:100E3C00202F2F2F7008F4027108031C710FF5027C
:100E4C007208031C720FF6027308031C730FF7026F
:100E5C00791401300310F30CF20CF10CF00CFF3E82
:100E6C00031D302F0130FD02031D3D2F3E2F052F9A
:100E7C007C08F3007B08F2007A08F1007908F00096
:100E8C000800003083120313A3000130A200863047
:100E9C00A100A030A0000A128A116C260A128A1135
:100EAC00203083120313AC000030AD000430AB00D3
:100EBC002030F1000030F2000430F3000A128A11E5
:100ECC003E260A128A11013083120313AB0701303C
:100EDC00AC070318AD0A0030AD072D08F2002C0842
:100EEC00F1002B08F3000A128A113E260A128A110D
:100EFC00013083120313AB070130AC070318AD0AA2
:100F0C000030AD072D08F2002C08F1002B08F3007F
:100F1C000A128A113E260A128A11343083120313E4
:100F2C00A900F130A800A80B992FA90B992F2030FC
:100F3C0083120313AC000030AD0083160313880139
:100F4C002030F1000030F2000A128A11A4260A1295
:100F5C008A118312031388000130AC070318AD0A01
:100F6C000030AD07153083120313AA004B30A900D3
:100F7C00BD30A800A80BC02FA90BC02FAA0BC02FE7
:100F8C00C72F831203132D08F2002C08F1000A124C
:100F9C008A11A4260A128A118312031388000130C5
:100FAC00AC070318AD0A0030AD07153083120313DC
:100FBC00AA004B30A900BD30A800A80BE32FA90B49
:100FCC00E32FAA0BE32FEA2F831203132D08F20051
:100FDC002C08F1000A128A11A4260A128A11831213
:100FEC0003138800F82F0A128A11002883010A12B1
:040FFC008A11472FE0
:08400000FF3FFF3FFF3FFF3FC0
:02400E003A3F37
:00000001FF
