:060000000A128A11FC2F18
:100EE8000A128A1182270A128A110A128A11A12764
:100EF8000A128A11792F0A128A110028FB308316E8
:100F0800031387000C3083120313970006309200F6
:100F18002F308316031392000230F5000930F400D5
:100F28000130F3001C30F2000130F1002A30F000EB
:100F38008312031391011215080074088312031316
:100F48009500CF3097057508F60003300310F60DAD
:100F5800FF3E031DAA2F0310760D97041730F800E3
:100F6800D530F7001630F600F60BB82FF70BB82F70
:100F7800F80BB82F00007208831203139500CF30C6
:100F880097057308F60003300310F60DFF3E031DA6
:100F9800C82F0310760D97041730F800D530F700E6
:100FA8001630F600F60BD62FF70BD62FF80BD62FE8
:100FB80000007008831203139500CF30970571085D
:100FC800F60003300310F60DFF3E031DE62F031055
:100FD800760D97041730F800D530F7001630F60074
:100FE800F60BF42FF70BF42FF80BF42F0000080082
:080FF80083010A128A11742F13
:02400E003A3F37
:00000001FF
