:060000000A128A11E82F2C
:100BCE00F30083120313871573088800071403308C
:100BDE00F2008A30F1005530F000F00BF42DF10BDD
:100BEE00F42DF20BF42DFB2DFE308312031387052B
:100BFE000800F300F730831203138705730888008B
:100C0E0007140330F2008A30F1005530F000F00B7B
:100C1E000E2EF10B0E2EF20B0E2E152EFE30831213
:100C2E000313870508007008710403191F2E202E68
:100C3E004D2E0130F4002C2E01300310F00DF10D6D
:100C4E00FF3E031D242E0130F407F11F2F2E302EF0
:100C5E00232E71087302031D362E70087202031CB8
:100C6E00392E3A2E402E7008F2027108031CF3033F
:100C7E00F30201300310F10CF00CFF3E031D412E68
:100C8E000130F402031D4C2E4D2E302E7308F10050
:100C9E007208F0000800F401F501700871040319E0
:100CAE00592E5A2E8F2E0130F600662E013003106B
:100CBE00F00DF10DFF3E031D5E2E0130F607F11F04
:100CCE00692E6A2E5D2E01300310F40DF50DFF3ED8
:100CDE00031D6B2E71087302031D772E70087202AE
:100CEE00031C7A2E7B2E822E7008F2027108031CD2
:100CFE00F303F302741401300310F10CF00CFF3EF9
:100D0E00031D832E0130F602031D8E2E8F2E6A2EAA
:100D1E007508F1007408F00008000A128A116427A1
:100D2E000A128A11643083120313AD000030AE0034
:100D3E00C830AB000030AC003D30FB002B30FA0069
:100D4E0080300A128A1100260A128A116430F700C6
:100D5E000030F8000A128A11F6260A128A11833020
:100D6E000A128A1100260A128A112B300A128A11CF
:100D7E00E7250A128A1184300A128A1100260A12F5
:100D8E008A11C830F7000030F8000A128A11F626D0
:100D9E000A128A1187300A128A1100260A128A1143
:100DAE003D300A128A11E7250A128A112C3083125D
:100DBE000313A9000130AA0089300A128A110026F5
:100DCE000A128A112C30F7000130F8000A128A112B
:100DDE00F6260A128A11F22E0A128A11002883129E
:100DEE000313B901BA0177087804031DFF2E002FF3
:100DFE003A2F30300A128A11E7250A128A11632F10
:100E0E000A30F0000030F1007808F3007708F200A5
:100E1E000A128A111A260A128A118312031339082A
:100E2E00F90079072F3E8400700883138000840A2E
:100E3E00710880000A30F0000030F1007808F300ED
:100E4E007708F2000A128A1152260A128A117108C4
:100E5E00F8007008F700013083120313B907031866
:100E6E00BA0A0030BA0777087804031D3F2F402FC7
:100E7E00072F3908FF3EBB003A080318013EFF3E1C
:100E8E00BC00BC1F4B2F4C2F4D2F632F3B08F9007E
:100E9E0079072F3E840083130008303E0A128A1110
:100EAE00E7250A128A11FF3083120313BB070318BA
:100EBE00BC0AFF30BC07482F0800831603138701B6
:100ECE0088010330F6008A30F5005530F400F40B3B
:100EDE006E2FF50B6E2FF60B6E2F752F30300A120C
:100EEE008A1100260A128A110330F6008A30F500A4
:100EFE005530F400F40B812FF50B812FF60B812F5B
:100F0E00882F30300A128A1100260A128A110330F5
:100F1E00F6008A30F5005530F400F40B942FF50BE3
:100F2E00942FF60B942F9B2F30300A128A11002625
:100F3E000A128A110330F6008A30F5005530F4009B
:100F4E00F40BA72FF50BA72FF60BA72FAE2F3830CC
:100F5E000A128A1100260A128A110330F6008A300C
:100F6E00F5005530F400F40BBA2FF50BBA2FF60B33
:100F7E00BA2FC12F0C300A128A1100260A128A11BA
:100F8E000330F6008A30F5005530F400F40BCD2F07
:100F9E00F50BCD2FF60BCD2FD42F01300A128A115F
:100FAE0000260A128A110330F6008A30F5005530F9
:100FBE00F400F40BE02FF50BE02FF60BE02FE72FEC
:100FCE000800FA01FB01FC0183120313A001A10129
:100FDE00A201A301A401A501A601A701A801A901CF
:100FEE00AA01AB01AC01AD01AE0183010A128A1157
:020FFE00942E2F
:02400E003A3F37
:00000001FF
