:020000040000FA
:060000000A128A11FC2F18
:100B78000A128A11E3250A128A11831603139114A3
:100B880008000A128A11E3250A128A118316031330
:100B9800111408000A128A11E3250A128A11831611
:100BA8000313111508008316031391160A128A11EC
:100BB800E3250A128A118316031311160800E42D7F
:100BC800831603131419E92DEA2DE42D11081F3992
:100BD800031DEF2DF02DE42DF12D0800F0000A1271
:100BE8008A11E3250A128A117008831203139300ED
:100BF800FD2D8C1D002E012EFD2D8C11003083162D
:100C08000313111B0130082E08000A128A11E3256C
:100C18000A128A11831603139115122E83128C1D42
:100C2800162E172E122E8C110A128A11E3250A127B
:100C38008A11831203131308212E08000A128A113D
:100C4800C5250A128A112D2E0A128A11BC250A12EC
:100C58008A11A0300A128A11F2250A128A11003A62
:100C6800031D372E382E282E392E72080A128A11A3
:100C7800F2250A128A1171080A128A11F2250A123B
:100C88008A1173080A128A11F2250A128A110A12A5
:100C98008A11CE250A128A110800283083120313FC
:100CA8009400831603139101831203132008A400F0
:100CB8002108A5002208A6002308A7000230031077
:100CC800A40DA50DA60DA70DFF3E031D632E270835
:100CD800F3002608F2002508F1002408F00000308F
:100CE800F700F430F6002430F5000030F4000A1262
:100CF8008A11CC260A128A117008FF3E8316031344
:100D0800930094018715071608000A128A11C52551
:100D18000A128A11942E0A128A11BC250A128A1103
:100D2800A0300A128A11F2250A128A11003A031D0C
:100D38009E2E9F2E8F2EA02E72080A128A11F2253F
:100D48000A128A1171080A128A11F2250A128A11E6
:100D58000A128A11BC250A128A11A1300A128A11B4
:100D6800F2250A128A110A128A1109260A128A1110
:100D7800F3007308F4000A128A11D7250A128A119F
:100D88000A128A11CE250A128A117408CB2E08007D
:100D98000030FC000030FB000030FA000030F900A1
:100DA80073087204710470040319DB2EDC2E2F2FD4
:100DB800FD01FD0AED2E0130F8000310F00DF10DD4
:100DC800F20DF30DF80BE12E0130F8007808FD075D
:100DD800ED2EF31FF02EF12EDF2EF32EF32E013021
:100DE800F8000310F90DFA0DFB0DFC0DF80BF52EAC
:100DF80073087702031D0A2F72087602031D0A2F53
:100E080071087502031D0A2F70087402031C0D2F48
:100E18000E2F1E2F7008F4027108031C710FF502C3
:100E28007208031C720FF6027308031C730FF70293
:100E380079141E2F01300310F30CF20CF10CF00C96
:100E4800FF3E031D1F2F0130FD02031D2C2F2D2FE8
:100E5800F32E2F2F2F2F7C08F3007B08F2007A083F
:100E6800F1007908F000382F0800003083120313CE
:100E7800A3000130A2008630A100A030A0000A1211
:100E88008A1151260A128A11203083120313AC00EA
:100E98000030AD000430A8002808AB002D08F2008F
:100EA8002C08F1002B08A8002808F3000A128A1160
:100EB80022260A128A11013083120313A800280877
:100EC800AB070130AC070318AD0A0030AD072D0899
:100ED800F2002C08F1002B08A8002808F3000A12D9
:100EE8008A1122260A128A11013083120313A800DC
:100EF8002808AB070130AC070318AD0A0030AD076E
:100F08002D08F2002C08F1002B08A8002808F3008F
:100F18000A128A1122260A128A1134308312031304
:100F2800A900F130A800A80B972FA90B972F203004
:100F380083120313AC000030AD008316031388013D
:100F4800831203132D08F2002C08F1000A128A11EB
:100F580089260A128A118312031388000130AC070C
:100F68000318AD0A0030AD07153083120313AA0029
:100F78004B30A900BD30A800A80BC02FA90BC02F6B
:100F8800AA0BC02FC72F831203132D08F2002C08B9
:100F9800F1000A128A1189260A128A118312031390
:100FA80088000130AC070318AD0A0030AD071530D2
:100FB80083120313AA004B30A900BD30A800A80B68
:100FC800E32FA90BE32FAA0BE32FEA2F83120313B6
:100FD8002D08F2002C08F1000A128A1189260A123B
:100FE8008A11831203138800F82F0A128A11002825
:080FF80083010A128A11392F4E
:02400E003A3F37
:00000001FF
