:060000000A128A110C280F
:10000800FE00030EF0000A08F1000A128A114A28BD
:100018000A128A110F28F50183010A128A1114287D
:10002800F0308316031386008701880183120313B7
:100038008601870188017F30831603138105883084
:100048008B00FF308312031388001A30F4005E30EF
:10005800F3006E30F200F20B2F28F30B2F28F40B6D
:100068002F2800008312031388011A30F4005E3031
:10007800F3006E30F200F20B3F28F30B3F28F40B2D
:100088003F28000025280A128A110C280B1C4D282D
:100098004E285C28831203130608F500E030750625
:1000A800031D572858285A2807098700FE308B0552
:0E00B80071088A00700E8300FE0E7E0E090095
:02400E003A3F37
:00000001FF
