:060000000A128A11EB2F29
:100DA4005334413447344134523400340034003431
:100DB400003400340034003400340034003400348F
:100DC400003400347E088A007F0882000A128A11E7
:100DD400E4260A128A118000840A04087D06031995
:100DE4000034FF0A0319FE0AE82EF30083120313EA
:100DF40087157308880007140330F2008A30F10065
:100E04005530F000F00B042FF10B042FF20B042FDC
:100E14000B2FFE308312031387050800F300F7300D
:100E24008312031387057308880007140330F20044
:100E34008A30F1005530F000F00B1E2FF10B1E2FFD
:100E4400F20B1E2F252FFE30831203138705080093
:100E54000A128A1167270A128A11F7017708803E5D
:100E64000A128A1110270A128A117708203E840078
:100E7400831300080A128A11F7260A128A11013014
:100E8400F7070B307702031C482F492F302FF80146
:100E94007808CF3C0A128A1110270A128A1178089E
:100EA400203E8400831300080A128A11F7260A12CE
:100EB4008A110130F8070B307802031C622F632F6C
:100EC4004A2F632F0A128A110028831603138701FD
:100ED40088010330F6008A30F5005530F400F40B35
:100EE400712FF50B712FF60B712F782F30300A12FA
:100EF4008A1110270A128A110330F6008A30F5008D
:100F04005530F400F40B842FF50B842FF60B842F4B
:100F14008B2F30300A128A1110270A128A110330DB
:100F2400F6008A30F5005530F400F40B972FF50BDA
:100F3400972FF60B972F9E2F30300A128A11102705
:100F44000A128A110330F6008A30F5005530F40095
:100F5400F40BAA2FF50BAA2FF60BAA2FB12F3830BA
:100F64000A128A1110270A128A110330F6008A30F5
:100F7400F5005530F400F40BBD2FF50BBD2FF60B27
:100F8400BD2FC42F0C300A128A1110270A128A119D
:100F94000330F6008A30F5005530F400F40BD02FFE
:100FA400F50BD02FF60BD02FD72F01300A128A1150
:100FB40010270A128A110330F6008A30F5005530E2
:100FC400F400F40BE32FF50BE32FF60BE32FEA2FDA
:100FD400080083133230FD000630FE00D230FF00DB
:100FE400203084000A128A11E8260A128A11F901B3
:0C0FF400FA01FB0183010A128A112A2F66
:00000001FF
