:060000000A128A11C02F54
:100EF4000734003406340034873400348634003434
:100F0400813400347E088A007F0882000A128A1124
:100F140084270A128A118000840A04087D060319B2
:100F24000034FF0A0319FE0A882F7F308316031347
:100F34008105F030860087018312031386010608B9
:100F4400FA00AF2F02308700A12F04308700A12FB1
:100F540006308700A12F8701A12F7A08703A031960
:100F6400AD2FC03A0319AA2F603A0319A72F303ABC
:100F74000319A42FAD2F0A128A1100280A128A110C
:100F84007A270A128A11F0000A128A117B270A12A0
:100F94008A11F1000A128A117C270A128A11F200BE
:100FA4000A128A117D270A128A11F3000A128A1181
:100FB4007E270A128A11F4000A128A117F270A1264
:100FC4008A11F5000A128A1180270A128A11F60082
:100FD4000A128A1181270A128A11F7000A128A1149
:100FE40082270A128A11F8000A128A1183270A1228
:0C0FF4008A11F90083010A128A11972F5C
:02400E003A3F37
:00000001FF
