:060000000A128A11ED2F27
:100BDA0054347834203444344134543441343A342B
:100BEA000034523478342034443441345434413457
:100BFA003A3400347E088A007F0882000A128A1179
:100C0A00FF250A128A118000840A04087D06031946
:100C1A000034FF0A0319FE0A032EF0308316031369
:100C2A0086008312031386017F308316031381051E
:100C3A0020309800903083120313980009308316ED
:100C4A000313990087170800F3008312031387150B
:100C5A007308880007140330F2008A30F100553017
:100C6A00F000F00B362EF10B362EF20B362E3D2EFF
:100C7A00FE308312031387050800F300F73083124E
:100C8A00031387057308880007140330F2008A30BB
:100C9A00F1005530F000F00B502EF10B502EF20BF4
:100CAA00502E572EFE308312031387050800FE309C
:100CBA00831603138705F730870588017F3081057E
:100CCA000330F6008A30F5005530F400F40B6B2E31
:100CDA00F50B6B2EF60B6B2E722E30300A128A1120
:100CEA0042260A128A110330F6008A30F50055307E
:100CFA00F400F40B7E2EF50B7E2EF60B7E2E852E3F
:100D0A0030300A128A1142260A128A110330F6007A
:100D1A008A30F5005530F400F40B912EF50B912E24
:100D2A00F60B912E982E30300A128A1142260A1298
:100D3A008A110330F6008A30F5005530F400F40BBE
:100D4A00A42EF50BA42EF60BA42EAB2E38300A12C5
:100D5A008A1142260A128A110330F6008A30F500F7
:100D6A005530F400F40BB72EF50BB72EF60BB72E51
:100D7A00BE2E0C300A128A1142260A128A11033038
:100D8A00F6008A30F5005530F400F40BCA2EF50B44
:100D9A00CA2EF60BCA2ED12E01300A128A11422609
:100DAA000A128A110330F6008A30F5005530F40031
:100DBA00F40BDD2EF50BDD2EF60BDD2EE42E0630C0
:100DCA000A128A1142260A128A110330F6008A3060
:100DDA00F5005530F400F40BF02EF50BF02EF60B5F
:100DEA00F02EF72E08000A128A1112260A128A1108
:100DFA000A128A115C260A128A1180300A128A1192
:100E0A0042260A128A11FA01FB017A08293E840055
:100E1A00831300080A128A1129260A128A1101303C
:100E2A00FA070318FB0A0030FB077B08803AFF0029
:100E3A0080307F02031D232F08307A02031C262FDD
:100E4A00272F0A2FC0300A128A1142260A128A1143
:100E5A00FC01FD017C08203E8400831300080A126D
:100E6A008A1129260A128A110130FC070318FD0A81
:100E7A000030FD077D08803AFF0080307F02031DA5
:100E8A00482F08307C02031C4B2F4C2F2F2F831620
:100E9A0003138801831203138801831203138C1E20
:100EAA00572F582F522F1A08B200DC2F88300A12F7
:100EBA008A1142260A128A1141300A128A112926F7
:100ECA000A128A11C8300A128A1142260A128A1193
:100EDA0061300A128A1129260A128A116130831294
:100EEA00031399000330F9008A30F8005530F700EF
:100EFA00F70B7D2FF80B7D2FF90B7D2F842F522FA7
:100F0A0088300A128A1142260A128A1142300A12BB
:100F1A008A1129260A128A11C8300A128A1142260F
:100F2A000A128A1162300A128A1129260A128A11B1
:100F3A006230831203139900772F88300A128A11BC
:100F4A0042260A128A1143300A128A1129260A12E3
:100F5A008A11C8300A128A1142260A128A1163308B
:100F6A000A128A1129260A128A116330831203137C
:100F7A009900772F88300A128A1142260A128A119A
:100F8A0044300A128A1129260A128A11C8300A1212
:100F9A008A1142260A128A1164300A128A112926F3
:100FAA000A128A116430831203139900772F3208C8
:100FBA00413A03195B2F033A0319852F013A0319A2
:100FCA00A22F073A0319BF2F522F0A128A1100289B
:100FDA0083133230FD000530FE00ED30FF00203073
:100FEA0084000A128A1103260A128A11B2018301A5
:060FFA000A128A11F82E14
:00000001FF
