:060000000A128A11E62F2E
:1005AC004334483434343A344334483431343A34B0
:1005BC00C730831203139F059F150330F000F00B17
:1005CC00E52A0800C730831203139F059F160330DA
:1005DC00F000F00BEF2A08007E088A007F088200EA
:1005EC000A128A11F2220A128A118000840A040863
:1005FC007D0603190034FF0A0319FE0AF62AF200DD
:10060C008312031387157208880007144130F10018
:10061C00EE30F000F00B102BF10B102B0000FE3025
:10062C008312031387050800F200F73083120313BB
:10063C0087057208880007144130F100EE30F00095
:10064C00F00B262BF10B262B0000FE30831203132C
:10065C0087050800FF3083160313850083120313EC
:10066C009F018930831603139F00831203131F14F9
:10067C000730F1007D30F000F00B422BF10B422BD8
:10068C0008007708780403194C2B4D2B7A2B01307A
:10069C00FB00592B01300310F70DF80DFF3E031D25
:1006AC00512B0130FB07F81F5C2B5D2B502B78086E
:1006BC007A02031D632B77087902031C662B672BC8
:1006CC006D2B7708F9027808031CFA03FA02013043
:1006DC000310F80CF70CFF3E031D6E2B0130FB02D0
:1006EC00031D792B7A2B5D2B7A08F8007908F7001B
:1006FC000800F401F501700871040319862B872B8F
:10070C00BC2B0130F600932B01300310F00DF10DD2
:10071C00FF3E031D8B2B0130F607F11F962B972BF9
:10072C008A2B01300310F40DF50DFF3E031D982BA1
:10073C0071087302031DA42B70087202031CA72BF3
:10074C00A82BAF2B7008F2027108031CF303F30201
:10075C00741401300310F10CF00CFF3E031DB02B90
:10076C000130F602031DBB2BBC2B972B7508F10037
:10077C007408F00008000030FC000030FB00003072
:10078C00FA000030F900701CCC2BCD2BE42B740834
:10079C00F907750803110318013E0319D62BFA0744
:1007AC00760803110318013E0319DD2BFB077708AC
:1007BC0003110318013E0319E42BFC070130F80068
:1007CC000310F40DF50DF60DF70DF80BE62B0130BB
:1007DC000310F30CF20CF10CF00CFF3E031DEE2B8E
:1007EC007308720471047004031DFD2BFE2BC92BBE
:1007FC007C08F3007B08F2007A08F1007908F0001D
:10080C0008008316031387018801831203138701E1
:10081C00880130300A128A111A230A128A114130C7
:10082C00F400EE30F300F30B192CF40B192C000030
:10083C0030300A128A111A230A128A114130F4003C
:10084C00EE30F300F30B282CF40B282C0000303086
:10085C000A128A111A230A128A114130F400EE305E
:10086C00F300F30B372CF40B372C000038300A1242
:10087C008A111A230A128A114130F400EE30F30067
:10088C00F30B462CF40B462C00000C300A128A1188
:10089C001A230A128A114130F400EE30F300F30BE4
:1008AC00552CF40B552C000001300A128A111A2316
:1008BC000A128A114130F400EE30F300F30B642C71
:1008CC00F40B642C00000800831203133608C200DA
:1008DC003708C3003808C4003908C5003208C20202
:1008EC003308031C330F7B2C7C2CC3023408031CF1
:1008FC00340F812C822CC4023508031C350F872C35
:10090C00882CC5024508A3004408A2004308A10096
:10091C004208A0002E08C6002F08C7003008C800E7
:10092C003108C9003208C6023308031C330F9F2C50
:10093C00A02CC7023408031C340FA52CA62CC8020B
:10094C003508031C350FAB2CAC2CC9024908F3003D
:10095C004808F2004708F1004608F0003E08CA00BB
:10096C003F08CB004008CC004108CD003A08CA0231
:10097C003B08031C3B0FC32CC42CCB023C08031CB0
:10098C003C0FC92CCA2CCC023D08031C3D0FCF2CAC
:10099C00D02CCD024D08F7004C08F6004B08F500A2
:1009AC004A08F4000A128A11C1230A128A11730828
:1009BC0083120313A7007208A6007108A500700823
:1009CC00A4000A128A11F7240A128A118312031343
:1009DC003A082007AE003B0803183B0A2107AF007A
:1009EC00080083120313A901A31FFD2CFE2C0B2D51
:1009FC00A009A109A209A309A00A0319A10A0319B4
:100A0C00A20A0319A30A0130A900A71F0E2D0F2D4E
:100A1C001C2DA409A509A609A709A40A0319A50A4E
:100A2C000319A60A0319A70A0130A9060030AD0064
:100A3C000030AC000030AB000030AA0023082204C8
:100A4C002104200403192B2D2C2D772D0130A80007
:100A5C003A2D0130FD000310A00DA10DA20DA30D28
:100A6C00FD0B312D0130A807A31F3D2D3E2D2F2D41
:100A7C000130FD000310AA0DAB0DAC0DAD0DFD0B3F
:100A8C00402D23082702031D552D22082602031D85
:100A9C00552D21082502031D552D20082402031C69
:100AAC00582D592D682D2008A4022108031C210F54
:100ABC00A5022208031C220FA6022308031C230FE5
:100ACC00A7022A1401300310A30CA20CA10CA00C39
:100ADC00FF3E031D692D0130A802031D762D772DD5
:100AEC003E2D290803197B2D7C2D872DAA09AB09D6
:100AFC00AC09AD09AA0A0319AB0A0319AC0A03190C
:100B0C00AD0A2D08A3002C08A2002B08A1002A086E
:100B1C00A000080004307D02003003197C02031C85
:100B2C00982D992D9D2DFF30FC000330FD000A30CF
:100B3C00F7000030F8007D08FA007C08F9000A1272
:100B4C008A1147230A128A11770883120313A30010
:100B5C000A30F7000030F8000A30F0000030F100E5
:100B6C007D08F3007C08F2000A128A117F230A1216
:100B7C008A117108FA007008F9000A128A114723C9
:100B8C000A128A11770883120313A2000A30F700A5
:100B9C000030F8006430F0000030F1007D08F30004
:100BAC007C08F2000A128A117F230A128A1171083A
:100BBC00FA007008F9000A128A1147230A128A11E6
:100BCC00770883120313A1000A30F7000030F800F5
:100BDC00E830F0000330F1007D08F3007C08F200EF
:100BEC000A128A117F230A128A117108FA007008FE
:100BFC00F9000A128A1147230A128A117708831204
:100C0C000313A00000307D020A3003197C02031884
:100C1C00102E112E2D2E20300A128A1105230A12A5
:100C2C008A1120300A128A1105230A128A112030E7
:100C3C000A128A1105230A128A118312031323083C
:100C4C00303E0A128A1105230A128A11A22E003094
:100C5C007D02643003197C020318352E362E552E76
:100C6C0020300A128A1105230A128A1120300A1226
:100C7C008A1105230A128A11831203132208303EAB
:100C8C000A128A1105230A128A11831203132308EC
:100C9C00303E0A128A1105230A128A11A22E033041
:100CAC007D02E83003197C0203185D2E5E2E802E27
:100CBC0020300A128A1105230A128A118312031397
:100CCC002108303E0A128A1105230A128A11831256
:100CDC0003132208303E0A128A1105230A128A11C4
:100CEC00831203132308303E0A128A1105230A12B9
:100CFC008A11A22E2008303E0A128A1105230A12EC
:100D0C008A11831203132108303E0A128A1105231B
:100D1C000A128A11831203132208303E0A128A1116
:100D2C0005230A128A11831203132308303E0A1278
:100D3C008A1105230A128A1108000A128A11072443
:100D4C000A128A110A128A1130230A128A1180306F
:100D5C000A128A111A230A128A1183120313D00160
:100D6C00D101831203135008603E840083130008E2
:100D7C000A128A1105230A128A11013083120313F5
:100D8C00D0070318D10A0030D1075108803AFF0070
:100D9C0080307F02031DD42E04305002031CD72E4A
:100DAC00D82EB72EC0300A128A111A230A128A11B1
:100DBC0083120313D201D3018312031352085C3E36
:100DCC008400831300080A128A1105230A128A115F
:100DDC00013083120313D2070318D30A0030D30750
:100DEC005308803AFF0080307F02031DFF2E043031
:100DFC005202031C022F032FE22E0A128A11DE224A
:100E0C000A128A11023083120313CE00CE0B0C2F60
:100E1C000000831203131F151F19152F162F122FE5
:100E2C001E08CE00CF014E08DA004F08DB008316F7
:100E3C0003131E0883120313CE00CF014E08D800F3
:100E4C004F08D9005A08CF00CE0158084E04D400E0
:100E5C0059084F04D50000305502023003195402D2
:100E6C000318392F3A2F3C2FD401D501FE305406EC
:100E7C00033003195506031D442F452F492FFF300E
:100E8C00D4000330D50084300A128A111A230A12B6
:100E9C008A11831203135508FD005408FC000A1232
:100EAC008A1190250A128A11073083120313CF007E
:100EBC007C30CE00CE0B602FCF0B602F00000A12BF
:100ECC008A11E8220A128A11023083120313CE000F
:100EDC00CE0B6E2F0000831203131F151F19772FD3
:100EEC00782F742F1E08CE00CF014E08DA004F0861
:100EFC00DB00831603131E0883120313CE00CF01ED
:100F0C004E08D8004F08D9005A08CF00CE01580817
:100F1C004E04D40059084F04D5005408AE005508AF
:100F2C00AF00B001B1010030B5000030B4000030AA
:100F3C00B3000030B2000030B9000030B80003300C
:100F4C00B700FF30B6000030BD000030BC000030F0
:100F5C00BB000030BA000030C1000030C0000030CF
:100F6C00BF008730BE000A128A116A240A128A1145
:100F7C00831203132F08D7002E08D6000030570217
:100F8C00863003195602031CCC2FCD2FD12F87305E
:100F9C00D6000030D700C4300A128A111A230A1264
:100FAC008A11831203135708FD005608FC000A121D
:100FBC008A1190250A128A11032F0A128A1100280D
:100FCC0083136430FD000230FE00D630FF005C302D
:100FDC0084000A128A11F6220A128A11D401D50150
:100FEC00D601D701D801D901DA01DB0183010A123C
:040FFC008A11A32E85
:02400E00BA3FB7
:00000001FF
