:060000000A128A110C280F
:10000800FE00030EF0000A08F1000A128A113628D1
:100018000A128A110F28F50183010A128A1114287D
:10002800831603138601880183120313860188014E
:100038000A128A1154200A128A118312031306091C
:1000480086000630F4001330F300AD30F200F20BF6
:100058002B28F30B2B28F40B2B28322821280A12E3
:100068008A110C28831203130C1C3B283C284D28AA
:100078000130F50714307506031D43284428472826
:1000880008098800F5013C308F00AF308E00FE3043
:100098008C0571088A00700E8300FE0E7E0E090022
:1000A800FD30831203139005EF309005DF30900583
:1000B8003C308F00AF308E00FE308C058316031362
:0E00C8000C140B178B1783120313101408006F
:02400E00723FFF
:00000001FF
